S01500004279676765726E4B7962496E662E73726563FE
S11300000C9438000C9442000C9442000C9442006E
S11300100C9442000C9442000C9442000C94420054
S11300200C9442000C9442000C9442000C94420044
S11300300C9442000C9442000C9442000C94420034
S11300400C9442000C9442000C9442000C94420024
S11300500C9442000C9442000C9442000C94420014
S11300600C9442000C9442000C9442000C94420004
S113007011241FBECFEFD4E0DEBFCDBF0E944F00DE
S11300800C9457000C94000090BD89B988E18AB99A
S11300908EE880BD08955D9BFECF8CB908958FE1F5
S11300A090E00E94440080E30E944B00FCCFF8944F
S10500B0FFCF7C
S9030000FC
